{
  "_format": "hh-sol-artifact-1",
  "contractName": "SimpleNFT",
  "sourceName": "contracts/SimpleNFT.sol",
  "abi": [
    {
      "inputs": [],
      "stateMutability": "nonpayable",
      "type": "constructor"
    },
    {
      "anonymous": false,
      "inputs": [
        {
          "indexed": true,
          "internalType": "address",
          "name": "owner",
          "type": "address"
        },
        {
          "indexed": true,
          "internalType": "address",
          "name": "approved",
          "type": "address"
        },
        {
          "indexed": true,
          "internalType": "uint256",
          "name": "tokenId",
          "type": "uint256"
        }
      ],
      "name": "Approval",
      "type": "event"
    },
    {
      "anonymous": false,
      "inputs": [
        {
          "indexed": true,
          "internalType": "address",
          "name": "owner",
          "type": "address"
        },
        {
          "indexed": true,
          "internalType": "address",
          "name": "operator",
          "type": "address"
        },
        {
          "indexed": false,
          "internalType": "bool",
          "name": "approved",
          "type": "bool"
        }
      ],
      "name": "ApprovalForAll",
      "type": "event"
    },
    {
      "anonymous": false,
      "inputs": [
        {
          "indexed": true,
          "internalType": "address",
          "name": "from",
          "type": "address"
        },
        {
          "indexed": true,
          "internalType": "address",
          "name": "to",
          "type": "address"
        },
        {
          "indexed": true,
          "internalType": "uint256",
          "name": "tokenId",
          "type": "uint256"
        }
      ],
      "name": "Transfer",
      "type": "event"
    },
    {
      "inputs": [
        {
          "internalType": "address",
          "name": "to",
          "type": "address"
        },
        {
          "internalType": "uint256",
          "name": "tokenId",
          "type": "uint256"
        }
      ],
      "name": "approve",
      "outputs": [],
      "stateMutability": "nonpayable",
      "type": "function"
    },
    {
      "inputs": [
        {
          "internalType": "address",
          "name": "owner",
          "type": "address"
        }
      ],
      "name": "balanceOf",
      "outputs": [
        {
          "internalType": "uint256",
          "name": "",
          "type": "uint256"
        }
      ],
      "stateMutability": "view",
      "type": "function"
    },
    {
      "inputs": [],
      "name": "collectionName",
      "outputs": [
        {
          "internalType": "string",
          "name": "",
          "type": "string"
        }
      ],
      "stateMutability": "view",
      "type": "function"
    },
    {
      "inputs": [],
      "name": "collectionSymbol",
      "outputs": [
        {
          "internalType": "string",
          "name": "",
          "type": "string"
        }
      ],
      "stateMutability": "view",
      "type": "function"
    },
    {
      "inputs": [],
      "name": "createSimpleNFT",
      "outputs": [
        {
          "internalType": "uint256",
          "name": "",
          "type": "uint256"
        }
      ],
      "stateMutability": "nonpayable",
      "type": "function"
    },
    {
      "inputs": [
        {
          "internalType": "uint256",
          "name": "tokenId",
          "type": "uint256"
        }
      ],
      "name": "getApproved",
      "outputs": [
        {
          "internalType": "address",
          "name": "",
          "type": "address"
        }
      ],
      "stateMutability": "view",
      "type": "function"
    },
    {
      "inputs": [
        {
          "internalType": "address",
          "name": "owner",
          "type": "address"
        },
        {
          "internalType": "address",
          "name": "operator",
          "type": "address"
        }
      ],
      "name": "isApprovedForAll",
      "outputs": [
        {
          "internalType": "bool",
          "name": "",
          "type": "bool"
        }
      ],
      "stateMutability": "view",
      "type": "function"
    },
    {
      "inputs": [],
      "name": "name",
      "outputs": [
        {
          "internalType": "string",
          "name": "",
          "type": "string"
        }
      ],
      "stateMutability": "view",
      "type": "function"
    },
    {
      "inputs": [
        {
          "internalType": "uint256",
          "name": "tokenId",
          "type": "uint256"
        }
      ],
      "name": "ownerOf",
      "outputs": [
        {
          "internalType": "address",
          "name": "",
          "type": "address"
        }
      ],
      "stateMutability": "view",
      "type": "function"
    },
    {
      "inputs": [
        {
          "internalType": "uint256",
          "name": "tokenId",
          "type": "uint256"
        }
      ],
      "name": "pickFirstWord",
      "outputs": [
        {
          "internalType": "string",
          "name": "",
          "type": "string"
        }
      ],
      "stateMutability": "view",
      "type": "function"
    },
    {
      "inputs": [
        {
          "internalType": "uint256",
          "name": "tokenId",
          "type": "uint256"
        }
      ],
      "name": "pickSecondWord",
      "outputs": [
        {
          "internalType": "string",
          "name": "",
          "type": "string"
        }
      ],
      "stateMutability": "view",
      "type": "function"
    },
    {
      "inputs": [
        {
          "internalType": "uint256",
          "name": "tokenId",
          "type": "uint256"
        }
      ],
      "name": "pickThirdWord",
      "outputs": [
        {
          "internalType": "string",
          "name": "",
          "type": "string"
        }
      ],
      "stateMutability": "view",
      "type": "function"
    },
    {
      "inputs": [
        {
          "internalType": "address",
          "name": "from",
          "type": "address"
        },
        {
          "internalType": "address",
          "name": "to",
          "type": "address"
        },
        {
          "internalType": "uint256",
          "name": "tokenId",
          "type": "uint256"
        }
      ],
      "name": "safeTransferFrom",
      "outputs": [],
      "stateMutability": "nonpayable",
      "type": "function"
    },
    {
      "inputs": [
        {
          "internalType": "address",
          "name": "from",
          "type": "address"
        },
        {
          "internalType": "address",
          "name": "to",
          "type": "address"
        },
        {
          "internalType": "uint256",
          "name": "tokenId",
          "type": "uint256"
        },
        {
          "internalType": "bytes",
          "name": "data",
          "type": "bytes"
        }
      ],
      "name": "safeTransferFrom",
      "outputs": [],
      "stateMutability": "nonpayable",
      "type": "function"
    },
    {
      "inputs": [
        {
          "internalType": "address",
          "name": "operator",
          "type": "address"
        },
        {
          "internalType": "bool",
          "name": "approved",
          "type": "bool"
        }
      ],
      "name": "setApprovalForAll",
      "outputs": [],
      "stateMutability": "nonpayable",
      "type": "function"
    },
    {
      "inputs": [
        {
          "internalType": "bytes4",
          "name": "interfaceId",
          "type": "bytes4"
        }
      ],
      "name": "supportsInterface",
      "outputs": [
        {
          "internalType": "bool",
          "name": "",
          "type": "bool"
        }
      ],
      "stateMutability": "view",
      "type": "function"
    },
    {
      "inputs": [],
      "name": "symbol",
      "outputs": [
        {
          "internalType": "string",
          "name": "",
          "type": "string"
        }
      ],
      "stateMutability": "view",
      "type": "function"
    },
    {
      "inputs": [
        {
          "internalType": "uint256",
          "name": "tokenId",
          "type": "uint256"
        }
      ],
      "name": "tokenURI",
      "outputs": [
        {
          "internalType": "string",
          "name": "",
          "type": "string"
        }
      ],
      "stateMutability": "view",
      "type": "function"
    },
    {
      "inputs": [
        {
          "internalType": "address",
          "name": "from",
          "type": "address"
        },
        {
          "internalType": "address",
          "name": "to",
          "type": "address"
        },
        {
          "internalType": "uint256",
          "name": "tokenId",
          "type": "uint256"
        }
      ],
      "name": "transferFrom",
      "outputs": [],
      "stateMutability": "nonpayable",
      "type": "function"
    }
  ],
  "bytecode": "0x6101e060405261012f6080818152906200258960a03980516200002b91600a91602090910190620004aa565b506040518060e00160405280604051806040016040528060048152602001634669726560e01b81525081526020016040518060400160405280600481526020016315da5b9960e21b8152508152602001604051806040016040528060048152602001635761766560e01b81525081526020016040518060400160405280600581526020016408ac2e4e8d60db1b8152508152602001604051806040016040528060078152602001662a343ab73232b960c91b815250815260200160405180604001604052806005815260200164537061636560d81b81525081526020016040518060400160405280600481526020016354696d6560e01b815250815250600b9060076200013a92919062000539565b506040518060e001604052806040518060400160405280600581526020016414dddbdc9960da1b81525081526020016040518060400160405280600581526020016429b832b0b960d91b81525081526020016040518060400160405280600681526020016514da1a595b1960d21b8152508152602001604051806040016040528060068152602001652430b6b6b2b960d11b81525081526020016040518060400160405280600581526020016429b0b132b960d91b81525081526020016040518060400160405280600381526020016241786560e81b815250815260200160405180604001604052806003815260200162426f7760e81b815250815250600c9060076200024992919062000539565b506040805161012081018252600460e0820181815263131bdc9960e21b610100840152825282518084018452908152634b696e6760e01b602082810191909152808301919091528251808401845260078082526622b6b832b937b960c91b828401528385019190915283518085018552600981526856656e657261626c6560b81b81840152606084015283518085018552600881526720b731b2b9ba37b960c11b81840152608084015283518085018552600581526414d85a5b9d60da1b8184015260a08401528351808501909452600384526211dbd960ea1b9184019190915260c08201929092526200034191600d919062000539565b503480156200034f57600080fd5b50604080518082018252600981526814da5b5c1b1953919560ba1b60208083019182528351808501909452600484526314d3919560e21b9084015281519192916200039d91600091620004aa565b508051620003b3906001906020840190620004aa565b50620003c1915050620003ff565b8051620003d791600891602090910190620004aa565b50620003e262000499565b8051620003f891600991602090910190620004aa565b5062000650565b606060008054620004109062000613565b80601f01602080910402602001604051908101604052809291908181526020018280546200043e9062000613565b80156200048f5780601f1062000463576101008083540402835291602001916200048f565b820191906000526020600020905b8154815290600101906020018083116200047157829003601f168201915b5050505050905090565b606060018054620004109062000613565b828054620004b89062000613565b90600052602060002090601f016020900481019282620004dc576000855562000527565b82601f10620004f757805160ff191683800117855562000527565b8280016001018555821562000527579182015b82811115620005275782518255916020019190600101906200050a565b506200053592915062000599565b5090565b8280548282559060005260206000209081019282156200058b579160200282015b828111156200058b57825180516200057a918491602090910190620004aa565b50916020019190600101906200055a565b5062000535929150620005b0565b5b808211156200053557600081556001016200059a565b8082111562000535576000620005c78282620005d1565b50600101620005b0565b508054620005df9062000613565b6000825580601f10620005f0575050565b601f01602090049060005260206000209081019062000610919062000599565b50565b600181811c908216806200062857607f821691505b602082108114156200064a57634e487b7160e01b600052602260045260246000fd5b50919050565b611f2980620006606000396000f3fe608060405234801561001057600080fd5b50600436106101215760003560e01c80636352211e116100ad578063c630338611610071578063c63033861461024e578063c87b56dd14610261578063e2d2c30814610274578063e5326ab114610287578063e985e9c51461028f57600080fd5b80636352211e146101fa57806370a082311461020d57806395d89b4114610220578063a22cb46514610228578063b88d4fde1461023b57600080fd5b806323b872dd116100f457806323b872dd146101a35780632f39352a146101b65780633bad0d36146101be57806342842e0e146101d15780634f9179b3146101e457600080fd5b806301ffc9a71461012657806306fdde031461014e578063081812fc14610163578063095ea7b31461018e575b600080fd5b6101396101343660046116b9565b6102cb565b60405190151581526020015b60405180910390f35b61015661031d565b604051610145919061172e565b610176610171366004611741565b6103af565b6040516001600160a01b039091168152602001610145565b6101a161019c366004611776565b6103d6565b005b6101a16101b13660046117a0565b6104f1565b610156610522565b6101566101cc366004611741565b6105b0565b6101a16101df3660046117a0565b6106a4565b6101ec6106bf565b604051908152602001610145565b610176610208366004611741565b6107d0565b6101ec61021b3660046117dc565b610830565b6101566108b6565b6101a16102363660046117f7565b6108c5565b6101a1610249366004611849565b6108d4565b61015661025c366004611741565b61090c565b61015661026f366004611741565b610951565b610156610282366004611741565b610a62565b610156610aa7565b61013961029d366004611925565b6001600160a01b03918216600090815260056020908152604080832093909416825291909152205460ff1690565b60006001600160e01b031982166380ac58cd60e01b14806102fc57506001600160e01b03198216635b5e139f60e01b145b8061031757506301ffc9a760e01b6001600160e01b03198316145b92915050565b60606000805461032c90611958565b80601f016020809104026020016040519081016040528092919081815260200182805461035890611958565b80156103a55780601f1061037a576101008083540402835291602001916103a5565b820191906000526020600020905b81548152906001019060200180831161038857829003601f168201915b5050505050905090565b60006103ba82610ab4565b506000908152600460205260409020546001600160a01b031690565b60006103e1826107d0565b9050806001600160a01b0316836001600160a01b031614156104545760405162461bcd60e51b815260206004820152602160248201527f4552433732313a20617070726f76616c20746f2063757272656e74206f776e656044820152603960f91b60648201526084015b60405180910390fd5b336001600160a01b03821614806104705750610470813361029d565b6104e25760405162461bcd60e51b815260206004820152603d60248201527f4552433732313a20617070726f76652063616c6c6572206973206e6f7420746f60448201527f6b656e206f776e6572206f7220617070726f76656420666f7220616c6c000000606482015260840161044b565b6104ec8383610b16565b505050565b6104fb3382610b84565b6105175760405162461bcd60e51b815260040161044b90611993565b6104ec838383610c02565b6009805461052f90611958565b80601f016020809104026020016040519081016040528092919081815260200182805461055b90611958565b80156105a85780601f1061057d576101008083540402835291602001916105a8565b820191906000526020600020905b81548152906001019060200180831161058b57829003601f168201915b505050505081565b606060006105e46105c084610d73565b6040516020016105d091906119fc565b604051602081830303815290604052610e10565b600b549091506105f49082611a41565b9050600b818154811061060957610609611a55565b90600052602060002001805461061e90611958565b80601f016020809104026020016040519081016040528092919081815260200182805461064a90611958565b80156106975780601f1061066c57610100808354040283529160200191610697565b820191906000526020600020905b81548152906001019060200180831161067a57829003601f168201915b5050505050915050919050565b6104ec838383604051806020016040528060008152506108d4565b6000806106cb60075490565b905060006106d8826105b0565b905060006106e58361090c565b905060006106f284610a62565b9050600083838360405160200161070b93929190611a6b565b60405160208183030381529060405290506000600a8585856040516020016107369493929190611aae565b6040516020818303038152906040529050600061077b8361075684610e41565b604051602001610767929190611b85565b604051602081830303815290604052610e41565b90506000816040516020016107909190611c60565b60405160208183030381529060405290506107ab3389610fa7565b6107b58882610fc1565b6107c3600780546001019055565b5095979650505050505050565b6000818152600260205260408120546001600160a01b0316806103175760405162461bcd60e51b8152602060048201526018602482015277115490cdcc8c4e881a5b9d985b1a59081d1bdad95b88125160421b604482015260640161044b565b60006001600160a01b03821661089a5760405162461bcd60e51b815260206004820152602960248201527f4552433732313a2061646472657373207a65726f206973206e6f7420612076616044820152683634b21037bbb732b960b91b606482015260840161044b565b506001600160a01b031660009081526003602052604090205490565b60606001805461032c90611958565b6108d033838361105b565b5050565b6108de3383610b84565b6108fa5760405162461bcd60e51b815260040161044b90611993565b6109068484848461112a565b50505050565b6060600061092c61091c84610d73565b6040516020016105d09190611ca5565b600c5490915061093c9082611a41565b9050600c818154811061060957610609611a55565b606061095c82610ab4565b6000828152600660205260408120805461097590611958565b80601f01602080910402602001604051908101604052809291908181526020018280546109a190611958565b80156109ee5780601f106109c3576101008083540402835291602001916109ee565b820191906000526020600020905b8154815290600101906020018083116109d157829003601f168201915b505050505090506000610a0c60408051602081019091526000815290565b9050805160001415610a1f575092915050565b815115610a51578082604051602001610a39929190611cd3565b60405160208183030381529060405292505050919050565b610a5a8461115d565b949350505050565b60606000610a82610a7284610d73565b6040516020016105d09190611d02565b600d54909150610a929082611a41565b9050600d818154811061060957610609611a55565b6008805461052f90611958565b6000818152600260205260409020546001600160a01b0316610b135760405162461bcd60e51b8152602060048201526018602482015277115490cdcc8c4e881a5b9d985b1a59081d1bdad95b88125160421b604482015260640161044b565b50565b600081815260046020526040902080546001600160a01b0319166001600160a01b0384169081179091558190610b4b826107d0565b6001600160a01b03167f8c5be1e5ebec7d5bd14f71427d1e84f3dd0314c0f7b2291e5b200ac8c7c3b92560405160405180910390a45050565b600080610b90836107d0565b9050806001600160a01b0316846001600160a01b03161480610bd757506001600160a01b0380821660009081526005602090815260408083209388168352929052205460ff165b80610a5a5750836001600160a01b0316610bf0846103af565b6001600160a01b031614949350505050565b826001600160a01b0316610c15826107d0565b6001600160a01b031614610c3b5760405162461bcd60e51b815260040161044b90611d2e565b6001600160a01b038216610c9d5760405162461bcd60e51b8152602060048201526024808201527f4552433732313a207472616e7366657220746f20746865207a65726f206164646044820152637265737360e01b606482015260840161044b565b610caa83838360016111d1565b826001600160a01b0316610cbd826107d0565b6001600160a01b031614610ce35760405162461bcd60e51b815260040161044b90611d2e565b600081815260046020908152604080832080546001600160a01b03199081169091556001600160a01b0387811680865260038552838620805460001901905590871680865283862080546001019055868652600290945282852080549092168417909155905184937fddf252ad1be2c89b69c2b068fc378daa952ba7f163c4a11628f55a4df523b3ef91a4505050565b60606000610d8083611259565b600101905060008167ffffffffffffffff811115610da057610da0611833565b6040519080825280601f01601f191660200182016040528015610dca576020820181803683370190505b5090508181016020015b600019016f181899199a1a9b1b9c1cb0b131b232b360811b600a86061a8153600a8504945084610e0357610e08565b610dd4565b509392505050565b600081604051602001610e239190611d73565b60408051601f19818403018152919052805160209091012092915050565b805160609080610e61575050604080516020810190915260008152919050565b60006003610e70836002611da5565b610e7a9190611dbd565b610e85906004611dd1565b90506000610e94826020611da5565b67ffffffffffffffff811115610eac57610eac611833565b6040519080825280601f01601f191660200182016040528015610ed6576020820181803683370190505b5090506000604051806060016040528060408152602001611eb4604091399050600181016020830160005b86811015610f62576003818a01810151603f601282901c8116860151600c83901c8216870151600684901c831688015192909316870151600891821b60ff94851601821b92841692909201901b91160160e01b835260049092019101610f01565b506003860660018114610f7c5760028114610f8d57610f99565b613d3d60f01b600119830152610f99565b603d60f81b6000198301525b505050918152949350505050565b6108d0828260405180602001604052806000815250611331565b6000828152600260205260409020546001600160a01b031661103c5760405162461bcd60e51b815260206004820152602e60248201527f45524337323155524953746f726167653a2055524920736574206f66206e6f6e60448201526d32bc34b9ba32b73a103a37b5b2b760911b606482015260840161044b565b600082815260066020908152604090912082516104ec9284019061160a565b816001600160a01b0316836001600160a01b031614156110bd5760405162461bcd60e51b815260206004820152601960248201527f4552433732313a20617070726f766520746f2063616c6c657200000000000000604482015260640161044b565b6001600160a01b03838116600081815260056020908152604080832094871680845294825291829020805460ff191686151590811790915591519182527f17307eab39ab6107e8899845ad3d59bd9653f200f220920489ca2b5937696c31910160405180910390a3505050565b611135848484610c02565b61114184848484611364565b6109065760405162461bcd60e51b815260040161044b90611df0565b606061116882610ab4565b600061117f60408051602081019091526000815290565b9050600081511161119f57604051806020016040528060008152506111ca565b806111a984610d73565b6040516020016111ba929190611cd3565b6040516020818303038152906040525b9392505050565b6001811115610906576001600160a01b03841615611217576001600160a01b03841660009081526003602052604081208054839290611211908490611e42565b90915550505b6001600160a01b03831615610906576001600160a01b0383166000908152600360205260408120805483929061124e908490611da5565b909155505050505050565b60008072184f03e93ff9f4daa797ed6e38ed64bf6a1f0160401b83106112985772184f03e93ff9f4daa797ed6e38ed64bf6a1f0160401b830492506040015b6d04ee2d6d415b85acef810000000083106112c4576d04ee2d6d415b85acef8100000000830492506020015b662386f26fc1000083106112e257662386f26fc10000830492506010015b6305f5e10083106112fa576305f5e100830492506008015b612710831061130e57612710830492506004015b60648310611320576064830492506002015b600a83106103175760010192915050565b61133b8383611471565b6113486000848484611364565b6104ec5760405162461bcd60e51b815260040161044b90611df0565b60006001600160a01b0384163b1561146657604051630a85bd0160e11b81526001600160a01b0385169063150b7a02906113a8903390899088908890600401611e59565b602060405180830381600087803b1580156113c257600080fd5b505af19250505080156113f2575060408051601f3d908101601f191682019092526113ef91810190611e96565b60015b61144c573d808015611420576040519150601f19603f3d011682016040523d82523d6000602084013e611425565b606091505b5080516114445760405162461bcd60e51b815260040161044b90611df0565b805181602001fd5b6001600160e01b031916630a85bd0160e11b149050610a5a565b506001949350505050565b6001600160a01b0382166114c75760405162461bcd60e51b815260206004820181905260248201527f4552433732313a206d696e7420746f20746865207a65726f2061646472657373604482015260640161044b565b6000818152600260205260409020546001600160a01b03161561152c5760405162461bcd60e51b815260206004820152601c60248201527f4552433732313a20746f6b656e20616c7265616479206d696e74656400000000604482015260640161044b565b61153a6000838360016111d1565b6000818152600260205260409020546001600160a01b03161561159f5760405162461bcd60e51b815260206004820152601c60248201527f4552433732313a20746f6b656e20616c7265616479206d696e74656400000000604482015260640161044b565b6001600160a01b038216600081815260036020908152604080832080546001019055848352600290915280822080546001600160a01b0319168417905551839291907fddf252ad1be2c89b69c2b068fc378daa952ba7f163c4a11628f55a4df523b3ef908290a45050565b82805461161690611958565b90600052602060002090601f016020900481019282611638576000855561167e565b82601f1061165157805160ff191683800117855561167e565b8280016001018555821561167e579182015b8281111561167e578251825591602001919060010190611663565b5061168a92915061168e565b5090565b5b8082111561168a576000815560010161168f565b6001600160e01b031981168114610b1357600080fd5b6000602082840312156116cb57600080fd5b81356111ca816116a3565b60005b838110156116f15781810151838201526020016116d9565b838111156109065750506000910152565b6000815180845261171a8160208601602086016116d6565b601f01601f19169290920160200192915050565b6020815260006111ca6020830184611702565b60006020828403121561175357600080fd5b5035919050565b80356001600160a01b038116811461177157600080fd5b919050565b6000806040838503121561178957600080fd5b6117928361175a565b946020939093013593505050565b6000806000606084860312156117b557600080fd5b6117be8461175a565b92506117cc6020850161175a565b9150604084013590509250925092565b6000602082840312156117ee57600080fd5b6111ca8261175a565b6000806040838503121561180a57600080fd5b6118138361175a565b91506020830135801515811461182857600080fd5b809150509250929050565b634e487b7160e01b600052604160045260246000fd5b6000806000806080858703121561185f57600080fd5b6118688561175a565b93506118766020860161175a565b925060408501359150606085013567ffffffffffffffff8082111561189a57600080fd5b818701915087601f8301126118ae57600080fd5b8135818111156118c0576118c0611833565b604051601f8201601f19908116603f011681019083821181831017156118e8576118e8611833565b816040528281528a602084870101111561190157600080fd5b82602086016020830137600060208483010152809550505050505092959194509250565b6000806040838503121561193857600080fd5b6119418361175a565b915061194f6020840161175a565b90509250929050565b600181811c9082168061196c57607f821691505b6020821081141561198d57634e487b7160e01b600052602260045260246000fd5b50919050565b6020808252602d908201527f4552433732313a2063616c6c6572206973206e6f7420746f6b656e206f776e6560408201526c1c881bdc88185c1c1c9bdd9959609a1b606082015260800190565b600081516119f28185602086016116d6565b9290920192915050565b66195b195b595b9d60ca1b815260008251611a1e8160078501602087016116d6565b9190910160070192915050565b634e487b7160e01b600052601260045260246000fd5b600082611a5057611a50611a2b565b500690565b634e487b7160e01b600052603260045260246000fd5b60008451611a7d8184602089016116d6565b845190830190611a918183602089016116d6565b8451910190611aa48183602088016116d6565b0195945050505050565b600080865481600182811c915080831680611aca57607f831692505b6020808410821415611aea57634e487b7160e01b86526022600452602486fd5b818015611afe5760018114611b0f57611b3c565b60ff19861689528489019650611b3c565b60008d81526020902060005b86811015611b345781548b820152908501908301611b1b565b505084890196505b505050505050611b7a611b61611b5b611b55848a6119e0565b886119e0565b866119e0565b6c1e17ba32bc3a1f1e17b9bb339f60991b8152600d0190565b979650505050505050565b693d913730b6b2911d101160b11b81528251600090611bab81600a8501602088016116d6565b7f222c20226465736372697074696f6e223a20224120686967686c79206163636c600a918401918201527f61696d656420636f6c6c656374696f6e20457465726e616c2057617272696f72602a8201527f73222c2022696d616765223a2022646174613a696d6167652f7376672b786d6c604a820152670ed8985cd94d8d0b60c21b606a8201528351611c458160728401602088016116d6565b61227d60f01b60729290910191820152607401949350505050565b7f646174613a6170706c69636174696f6e2f6a736f6e3b6261736536342c000000815260008251611c9881601d8501602087016116d6565b91909101601d0192915050565b653bb2b0b837b760d11b815260008251611cc68160068501602087016116d6565b9190910160060192915050565b60008351611ce58184602088016116d6565b835190830190611cf98183602088016116d6565b01949350505050565b6372616e6b60e01b815260008251611d218160048501602087016116d6565b9190910160040192915050565b60208082526025908201527f4552433732313a207472616e736665722066726f6d20696e636f72726563742060408201526437bbb732b960d91b606082015260800190565b60008251611d858184602087016116d6565b9190910192915050565b634e487b7160e01b600052601160045260246000fd5b60008219821115611db857611db8611d8f565b500190565b600082611dcc57611dcc611a2b565b500490565b6000816000190483118215151615611deb57611deb611d8f565b500290565b60208082526032908201527f4552433732313a207472616e7366657220746f206e6f6e20455243373231526560408201527131b2b4bb32b91034b6b83632b6b2b73a32b960711b606082015260800190565b600082821015611e5457611e54611d8f565b500390565b6001600160a01b0385811682528416602082015260408101839052608060608201819052600090611e8c90830184611702565b9695505050505050565b600060208284031215611ea857600080fd5b81516111ca816116a356fe4142434445464748494a4b4c4d4e4f505152535455565758595a6162636465666768696a6b6c6d6e6f707172737475767778797a303132333435363738392b2fa2646970667358221220f50f6b45c9d220e3b331a3289573397a4f3e090c25b10e12d4cca53db4da3ab364736f6c634300080900333c73766720786d6c6e733d27687474703a2f2f7777772e77332e6f72672f323030302f73766727207072657365727665417370656374526174696f3d27784d696e594d696e206d656574272076696577426f783d273020302033353020333530273e3c7374796c653e2e62617365207b2066696c6c3a2077686974653b20666f6e742d66616d696c793a2073657269663b20666f6e742d73697a653a20323470783b207d3c2f7374796c653e3c726563742077696474683d273130302527206865696768743d2731303025272066696c6c3d27626c61636b27202f3e3c7465787420783d273530252720793d273530252720636c6173733d27626173652720646f6d696e616e742d626173656c696e653d276d6964646c652720746578742d616e63686f723d276d6964646c65273e",
  "linkReferences": {},
  "deployedLinkReferences": {}
}